:100000000C9476000C9495000C9495000C94780157
:100010000C9495000C9495000C9495000C9495000C
:100020000C9495000C9495000C9495000C949500FC
:100030000C9495000C9495000C9495000C949500EC
:100040000C9495000C9495000C9495000C949500DC
:100050000C9495000C9495000C9495000C949500CC
:100060000C9495000C9495000C9495000C949500BC
:100070000C9495000C9495000C9495000C949500AC
:100080000C9495000C9495000C9495000C9495009C
:100090000C9495000C9495000C9495000C9495008C
:1000A0000C9495000C9495000C9495000C9495007C
:1000B0000C9495000C9495000C9495000C9495006C
:1000C0000C9495000C9495000C9495000C9495005C
:1000D0000C9495000C9495000C9495000C9495004C
:1000E0000C9495000C9495000C94950011241FBE5F
:1000F000CFEFCDBFDFE7DEBF12E4A0E0B0E4EEE07B
:10010000F1E100E00BBF02C007900D92AA32B107E7
:10011000D9F722E4AAE2B2E401C01D92A433B207E7
:10012000E1F70E9422010C9485080C9400000E94C3
:100130004503089580912D428F5F8C3318F480938E
:100140002D4216C010922D4280912C428F5F8C332D
:1001500018F480932C420CC010922C4280912B42B8
:100160008F5F883118F480932B4202C010922B428B
:1001700040912D4260912C4280912B420E94890136
:10018000089580912A42811108C080912D428F5F8D
:100190008C3310F110922D4216C0813041F48091C1
:1001A0002C428F5F8C33D8F010922C420CC08230DE
:1001B00051F480912B428F5F883118F480932B4249
:1001C00002C010922B4240912D4260912C428091AE
:1001D0002B420E948901089580932D42F4CF809391
:1001E0002C42F1CF80912A428F5F833019F08093A7
:1001F0002A4202C010922A4280912A420E9473022F
:1002000040912D4260912C4280912B420E948901A5
:10021000089564E270E088E690E00E947F08089507
:100220004798E7E5F4E08081886080830895E0E402
:10023000F1E081E080832FEF33E0228733878783EB
:10024000828308950E9409010E9497000E94100174
:100250000E94170178940E941F040E94BD028AB177
:10026000807891E009F490E0811120C080910040F5
:100270008823F1F0EFE5FAEE3197F1F700C00000C6
:10028000579918C080E08F5FEFE5FAEE3197F1F7EC
:1002900000C00000579904C08436A9F782E00FC05F
:1002A000882351F0843650F082E009C080E007C016
:1002B00080E005C080E003C080E001C081E0909351
:1002C000004080932E4280912F42813021F40E9481
:1002D0009A0010922F4280912E42813019F40E9490
:1002E000C100BDCF823009F0BACF0E94F200B7CF73
:1002F0001F920F920FB60F9211248F9381E080937B
:100300002F42809343018F910F900FBE0F901F904B
:100310001895EF92FF920F931F93CF93DF93CDB772
:10032000DEB72A97CDBFDEBF8A3008F052C06A30F0
:1003300040F54A3098F41F924F931F926F931F928B
:100340008F9383E090E49F938F93CE0101969F93C8
:100350008F930E94A205CDBFDEBF8CC01F924F932A
:100360001F926F931F928F938FE090E49F938F93D0
:10037000CE0101969F938F930E94A205CDBFDEBF51
:1003800079C04A3098F41F924F931F926F931F9237
:100390008F938AE190E49F938F93CE0101969F9370
:1003A0008F930E94A205CDBFDEBF64C01F924F9302
:1003B0001F926F931F928F9385E290E49F938F9388
:1003C000CE0101969F938F930E94A205CDBFDEBF01
:1003D00051C06A3040F54A3098F41F924F931F92F3
:1003E0006F931F928F9384E090E49F938F93CE013D
:1003F00001969F938F930E94A205CDBFDEBF3AC0A6
:100400001F924F931F926F931F928F9380E190E4FE
:100410009F938F93CE0101969F938F930E94A20585
:10042000CDBFDEBF27C04A3098F41F924F931F9272
:100430006F931F928F938BE190E49F938F93CE01E4
:1004400001969F938F930E94A205CDBFDEBF12C07D
:100450001F924F931F926F931F928F9386E290E4A7
:100460009F938F93CE0101969F938F930E94A20535
:10047000CDBFDEBF00E010E02FE347E66DE283E092
:100480000E944604EE24EA94FE2C8E010F5F1F4F5B
:1004900022E042E06DE283E00E9427052A96CDBF6C
:1004A000DEBFDF91CF911F910F91FF90EF900895E4
:1004B000CF93DF9360E680E00E94C00360E680E0B7
:1004C0000E94A703D0E60AC0809132429091334245
:1004D0000E940A04C150C1F7D15011F0C0E6F4CF18
:1004E000DF91CF910895EF92FF920F931F93CF93D7
:1004F000DF93CDB7DEB72A97CDBFDEBF81110AC02B
:1005000089E0EFE2F0E4DE01119601900D928A9508
:10051000E1F715C0813051F489E0E8E3F0E4DE0151
:10052000119601900D928A95E1F709C089E0E1E406
:10053000F0E4DE01119601900D928A95E1F700E05A
:1005400010E023E547E661E483E00E944604EE24E0
:10055000EA94FE2C8E010F5F1F4F22E042E061E41F
:1005600083E00E9427052A96CDBFDEBFDF91CF91A1
:100570001F910F91FF90EF900895EF92FF920F93CC
:100580001F93CF93DF93CDB7DEB72A97CDBFDEBFE2
:1005900010923242109233420E94580285E0EAE4FF
:1005A000F0E4DE01119601900D928A95E1F7EE24B8
:1005B000EA94FE2C8E010F5F1F4F22E042E069E1BA
:1005C00089E10E94270580E00E9473022A96CDBF30
:1005D000DEBFDF91CF911F910F91FF90EF900895B3
:1005E0001092890080E0089580E0089580E00895E9
:1005F000E0E1F4E0808188608193E83184E0F807ED
:10060000C9F7E0E3F4E0808188608193E83384E017
:10061000F807C9F7E0E5F4E0808188608193E83568
:1006200084E0F807C9F7E0E7F4E08081886081930F
:10063000E83784E0F807C9F7E0E9F4E080818860F2
:100640008193E83984E0F807C9F7E0EBF4E08081B2
:1006500088608193E83B84E0F807C9F7E0EDF4E0B7
:10066000808188608193E83D84E0F807C9F70895A8
:100670000598E5E1F4E08081877F8083049A0C98F7
:10068000069A0E980E94630508950E94F802079A40
:100690000F98609A6898639A6B98669A6E98679AB2
:1006A0006F980E94F4020E9461050E94F6020E9467
:1006B000F0020E9438030895CF93DF93D82FC62FFE
:1006C00080E00E946905882371F08D2F0E948405C7
:1006D000D82F8C2F0E948405C82F0E9481058C2F53
:1006E00090E09D2B02C08FEF9FEFDF91CF91089597
:1006F0000F931F93CF93DF93C82F8B01D42F80E0EC
:100700000E9469058823F1F00F9868988C2F0E9449
:100710008405DD2331F0689A6D2FC8010E9492058F
:1007200068980F9A0E94810584EA8C0F823040F409
:10073000CC3511F082E001C081E08093304202C0EC
:1007400010923042DF91CF911F910F910895CF9376
:10075000DF9300D0CDB7DEB7803608F08FE5898310
:10076000603608F06FE56A8342E0BE016F5F7F4F3D
:1007700085E70E9478030F900F90DF91CF91089545
:10078000CF93DF9300D0CDB7DEB7803608F08FE58A
:10079000805F8983603608F06FE5605F6A8342E0BE
:1007A000BE016F5F7F4F85E10E9478030F900F902D
:1007B000DF91CF910895811102C08FEA01C08EEAC6
:1007C00040E060E070E00E9478030895CF93DF93EB
:1007D0001F92CDB7DEB782E3898341E0BE016F5F30
:1007E0007F4F80EA0E94780380E2898341E0BE0166
:1007F0006F5F7F4F81EA0E9478030F90DF91CF9166
:10080000089540E060E070E08CE50E9478030F9866
:10081000689A0895CF93DF93D82FC92F80913042E3
:10082000813031F00E94010480913042813021F406
:100830006D2F8C2F0E945C03DF91CF9108956E98ED
:100840006F9A6B9889EF90E00197F1F700C0000074
:100850006F9800C06F9A6E9A89EF90E00197F1F758
:1008600000C0000080E00E94DB038FE493EC01975E
:10087000F1F700C000006FE580E00E94C0036FE563
:1008800080E00E94A7030E94E60308959F92AF9222
:10089000BF92CF92DF92EF92FF920F931F93CF936D
:1008A000DF93D82F962EC42EE22E642F0E94C00311
:1008B0006E2D892D0E94A703D12C8FEFC81AD80A5C
:1008C0008D2F90E08C159D0594F01BC0C92DC8019B
:1008D0000E940A04CF5F8C2F90E08E159F05BCF319
:1008E000DF5F8D2F90E08C159D053CF00AC0F12C48
:1008F0008FEFE81AF80AA92CB12CAE14BF0434F318
:10090000EFCFDF91CF911F910F91FF90EF90DF908C
:10091000CF90BF90AF909F9008952F923F924F92AB
:100920005F926F927F928F929F92AF92BF92CF927F
:10093000DF92EF92FF920F931F93CF93DF93CDB788
:10094000DEB72F97CDBFDEBFE02FF0E0B097DF011D
:10095000AA0FBB1FAA0FBB1FEA0FFB1FE15BFF4BD8
:10096000A42FB0E08D01000F111F000F111F1801FF
:100970002A0E3B1E2114310409F453C0E982FA8285
:10098000422E4D836D8730E0A901440F551F440F5F
:10099000551F440F551F4A875B877A01682E812CAB
:1009A000912C59017A2C71944A945D8151505C8745
:1009B000CD018E839F83EB82FC82EE87FF87D62C4E
:1009C00028863986C72C342CEE85FF855190EE871A
:1009D000FF870B811C81012BC9F04D841A85410EC4
:1009E0006B807C80FC84FD0C50FE09C009811A815B
:1009F000232D240D4F2D642D8D2D0E9446045694D9
:100A00006A187B084C0C6114710471F78E819F8108
:100A1000880E991E9D81D90EE885F9858E169F0650
:100A200098F22F96CDBFDEBFDF91CF911F910F912E
:100A3000FF90EF90DF90CF90BF90AF909F908F90FE
:100A40007F906F905F904F903F902F9008957F928E
:100A50008F929F92AF92BF92CF92DF92EF92FF92CE
:100A60000F931F93CF93DF93C82F862E942E722E51
:100A7000F801570100810023B1F0D42FDD0FDD0F05
:100A8000D40FDF5F6F018FEFC81AD80A7501272DC9
:100A9000492D682D8C2F0E948D04CD0FF6010191F8
:100AA0006F010111F3CFDF91CF911F910F91FF9053
:100AB000EF90DF90CF90BF90AF909F908F907F90FE
:100AC000089580E0089581E28093400910923142B8
:100AD000089590913142911112C091E0909331426A
:100AE000E82FF0E0EE0FFF1FEF5FFF4B8081A0E4E7
:100AF000B9E08C93818111968C9381E0089580E018
:100B00000895109231420895909131429230F1F35C
:100B100080934409E0E4F9E083818823ECF7809135
:100B2000440908952FEF260F662359F0A82FB92FF7
:100B3000E0E4F9E08D91848383818823ECF72150F0
:100B4000C8F708950F931F93CF93DF93CDB7DEB708
:100B50002E97CDBFDEBF0D891E8986E08C83098369
:100B60001A838FEF9FE78D839E83AE01475E5F4FB1
:100B70006F89788DCE0101960E94CB05EF81F885B3
:100B8000E00FF11F10822E96CDBFDEBFDF91CF9117
:100B90001F910F9108952F923F924F925F926F9203
:100BA0007F928F929F92AF92BF92CF92DF92EF92FD
:100BB000FF920F931F93CF93DF93CDB7DEB72B97A1
:100BC000CDBFDEBF6C017B018A01FC01168217825A
:100BD000838181FFCCC1CE0101963C01F601938156
:100BE000F70193FD859193FF81917F01882309F49B
:100BF000BAC1853239F493FD859193FF81917F01CC
:100C0000853229F4B60190E00E94E507E7CF912CE8
:100C1000212C312CFFE1F315D8F08B3279F038F428
:100C2000803279F08332A1F4232D20611DC08D32F2
:100C300061F0803369F4232D216016C0832D82601A
:100C4000382EE32DE4603E2E2AC0F32DF8601DC03F
:100C500037FC2DC020ED280F2A3040F08E32B9F439
:100C600036FC81C1232D2064322E19C036FE06C009
:100C70008AE0989E200D1124922E11C0EAE02E9E4B
:100C8000200D1124222EF32DF0623F2E08C08C3649
:100C900021F4832D8068382E02C0883641F4F70194
:100CA00093FD859193FF81917F018111B3CF982F9F
:100CB0009F7D9554933028F40C5F1F4F9FE39983D9
:100CC0000DC0833631F0833771F0833509F059C098
:100CD00021C0F801808189830E5F1F4F882483948F
:100CE000912C530113C02801F2E04F0E511CF80162
:100CF000A080B18036FE03C0692D70E002C06FEFA6
:100D00007FEFC5010E94DA074C018201F32DFF77C6
:100D10003F2E16C0280122E0420E511CF801A0808F
:100D2000B18036FE03C0692D70E002C06FEF7FEF27
:100D3000C5010E94CF074C01F32DF0683F2E8201C0
:100D400033FC1BC0822D90E088169906B0F4B601E2
:100D500080E290E00E94E5072A94F4CFF50137FC89
:100D6000859137FE81915F01B60190E00E94E50711
:100D700021102A9421E0821A91088114910471F7BC
:100D8000E8C0843611F0893641F5F80137FE07C016
:100D900060817181828193810C5F1F4F08C06081E7
:100DA0007181072E000C880B990B0E5F1F4FF32DDE
:100DB000FF763F2E97FF09C09095809570956195BD
:100DC0007F4F8F4F9F4FF0683F2E2AE030E0A30106
:100DD0000E942108882E861845C0853731F4232DBE
:100DE0002F7EB22E2AE030E025C0932D997FB92EB8
:100DF0008F36C1F018F4883579F0B5C0803719F016
:100E0000883721F0B0C0E92FE061BE2EB4FE0DC0DE
:100E1000FB2DF460BF2E09C034FE0AC0292F2660C6
:100E2000B22E06C028E030E005C020E130E002C06C
:100E300020E132E0F801B7FE07C060817181828154
:100E400093810C5F1F4F06C06081718180E090E04C
:100E50000E5F1F4FA3010E942108882E8618FB2DCC
:100E6000FF773F2E36FE0DC0232D2E7FA22E891434
:100E700058F434FE0BC032FC09C0832D8E7EA82EA0
:100E800005C0B82CA32C03C0B82C01C0B92CA4FEFB
:100E90000FC0FE01E80DF11D8081803321F49A2DF1
:100EA000997EA92E09C0A2FE06C0B394B39404C0D3
:100EB0008A2D867809F0B394A3FC11C0A0FE06C069
:100EC000B21488F4280C922C9B180EC0B21460F453
:100ED000B60180E290E00E94E507B394F7CFB21428
:100EE00018F42B1802C0982C212CA4FE10C0B601B7
:100EF00080E390E00E94E507A2FE17C0A1FC03C0BA
:100F000088E790E002C088E590E0B6010CC08A2D29
:100F1000867859F0A1FE02C08BE201C080E2A7FCF6
:100F20008DE2B60190E00E94E507891438F4B6011D
:100F300080E390E00E94E5079A94F7CF8A94F3014A
:100F4000E80DF11D8081B60190E00E94E507811057
:100F5000F5CF222009F442CEB60180E290E00E9453
:100F6000E5072A94F6CFF6018681978102C08FEFBC
:100F70009FEF2B96CDBFDEBFDF91CF911F910F91D9
:100F8000FF90EF90DF90CF90BF90AF909F908F90A9
:100F90007F906F905F904F903F902F900895FC014D
:100FA0000590615070400110D8F7809590958E0F94
:100FB0009F1F0895FC016150704001900110D8F707
:100FC000809590958E0F9F1F08950F931F93CF9339
:100FD000DF93FB01238121FD03C08FEF9FEF2CC026
:100FE00022FF16C04681578124813581421753075D
:100FF00044F4A081B1819D012F5F3F4F2083318355
:101000008C93268137812F5F3F4F2683378314C00F
:101010008B01EC01FB010084F185E02D0995892B02
:10102000E1F6D80116968D919C9117970196169628
:101030008D939C931797CE01DF91CF911F910F91C4
:101040000895FA01AA27283051F1203181F1E8945E
:101050006F936E7F6E5F7F4F8F4F9F4FAF4FB1E0AB
:101060003ED0B4E03CD0670F781F891F9A1FA11DA6
:10107000680F791F8A1F911DA11D6A0F711D811DA7
:10108000911DA11D20D009F468943F912AE0269F6C
:1010900011243019305D3193DEF6CF010895462FCB
:1010A0004770405D4193B3E00FD0C9F7F6CF462FAC
:1010B0004F70405D4A3318F0495D31FD4052419315
:1010C00002D0A9F7EACFB4E0A695979587957795D2
:1010D0006795BA95C9F700976105710508959B0159
:1010E000AC010A2E06945795479537952795BA95E2
:1010F000C9F7620F731F841F951FA01D0895DC019F
:0E11000028ED209334006C930895F894FFCFEF
:10110E000121003025643A3025643A3025640030E0
:10111E0025643A3025643A2564003025643A256406
:10112E003A302564003025643A25643A256400205F
:10113E0020202020202D2D002020202D2D2020208D
:10114E00002D2D2020202020200054494D45000048
:10115E00000000000000FA000000E000E00028FEA1
:10116E0028FE282454FE5448C4C81026466C926AA1
:10117E00040A0010E0C000003844820000824438A7
:10118E00005438FE385410107C101000000E0C0065
:10119E001010101010000006060004081020407CED
:1011AE008A92A27C0042FE02004E92929262848249
:1011BE0092B2CC182848FE08E4A2A2A29C3C5292FD
:1011CE00928C82848890E06C9292926C629292944D
:1011DE0078000028000000022C0000001028448235
:1011EE002828282828008244281040809A90607C65
:1011FE0082BA9A723E4888483EFE9292926C7C82E7
:10120E00828244FE8282827CFE92929282FE909034
:10121E0090807C82828ACEFE101010FE0082FE82AA
:10122E0000040282FC80FE10284482FE02020202AA
:10123E00FE403840FEFE201008FE7C8282827CFE3C
:10124E00909090607C828A847AFE909894626492E8
:10125E0092924CC080FE80C0FC020202FCF8040296
:10126E0004F8FC021C02FCC6281028C6C0201E2052
:10127E00C0869A92B2C200FE82828240201008047A
:10128E0000828282FE204080402002020202020082
:10129E00C0E01000042A2A1C02FE1422221C1C226A
:1012AE002222141C222214FE1C2A2A2A1800107E26
:1012BE009040304A4A523CFE1020201E0022BE02B0
:1012CE0000040202BC00FE081422000082FE02008E
:1012DE003E201E201E3E1020201E1C2222221C3EBE
:1012EE0018242418182424183E3E10202010122AE8
:1012FE002A2A242020FC22243C0202043E38040226
:10130E0004383C020C023C2214081422320A0A0A47
:10131E003C22262A322200106C82000000FE0000C1
:0A132E0000826C1000408040204057
:00000001FF
